:020000040000fa
:100000000200d2021003000000000002100b0000ea
:10001000000000021013000000000002101b00008e
:10002000000000021023000000000002102b00005e
:10003000000000021033000000000002103b00002e
:10004000000000021043000000000002104b0000fe
:10005000000000021053000000000002105b0000ce
:10006000000000021063000000000002106b00009e
:10007000000000021073000000000002107b00006e
:10008000000000021083000000000002108b00003e
:100090000000000208ede4900002781a7902800264
:1000a000f0a3d8fcd9fa7a1b7b019000e478107990
:1000b000018015e493a3ad82ae838a828b83f0a383
:1000c000aa82ab838d828e83d8e9d9e7120572129a
:1000d000090c75d00075813f751c8075931e539275
:1000e000fe020096001000100000f800ffff001054
:1000f0000000ffe4936670130874019366700c08a7
:10010000740293667005087403936622c008c3e006
:1001100096f50808a3e096420808a3e0964208086e
:10012000a3e09645087001d3d00822c3e493960853
:100130007401939608740293960874039396226050
:1001400016080808c6c313c618c613c618c613c6b1
:1001500018c613c6d5e0ea22e026f008a3e036f080
:1001600008a3e036f008a3e036f022e056f608a334
:10017000e056f608a3e056f608a3e056f622e0f6ad
:1001800008a3e0f608a3e0f608a3e0f622c9c0e061
:10019000e7f20809e7f20809e7f20809e7f2d0e018
:1001a000f922e6f008a3e6f008a3e6f008a3e6f0db
:1001b00022cac0e0e6f30908dafad0e0fa22cac09f
:1001c000e0e2f30908dafad0e0fa22700422600dc6
:1001d00018c6c333c608c633c6d5e0f41822e47384
:1001e0005392fed083d082251cf8c51cc39824fbf3
:1001f000cef208e520f208e9c0e07908e709f20844
:10020000defad0e0f9eff208d0e0fed0e0f208ee3e
:10021000f208e473a81ce2fe08e208f520e9c0e059
:100220007908e208f709dffae208ffd0e0f9e2080e
:10023000c0e0e208c0e0881c5392fe22e584f20888
:10024000e585f222e208f584e2f585227402800059
:10025000c9c0e0e51cc399f51cc91201b1d0e0f991
:100260002274028000c9c0e0e51cc399f51cc912c4
:1002700001bed0e0f922d083d082ecc0e0edc0e036
:10028000eec0e0efc0e0e493a3fce493a3fde493ad
:10029000a3fee493a3ffef4e4d4c60151202f2ec67
:1002a00024fffced34fffdee34fffeef34ffff8052
:1002b000e5e493a3fce493a3fde493a3fee493a3fa
:1002c000ffef4e4d4c601512032fec24fffced3474
:1002d000fffdee34fffeef34ffff80e5d0e0ffd0fe
:1002e000e0fed0e0fdd0e0fce493a3c0e0e493c0e6
:1002f000e022c0e0c0f088f012012ba8f040071205
:1003000000f3a8f0701aa3a3a3a312012ba8f0a3d3
:10031000a3a3a34013d0f0d0e0d0e0d0e00202dcf1
:10032000a3a3a3a3a3a3a3a3a3a3d0f0d0e022c01d
:10033000e0c0f088f01200f3a8f0a3a3a3a3700b11
:10034000d0f0d0e0d0e0d0e00202dca3a3d0f0d027
:10035000e02275bc0075bc005392fe22800f8a8299
:100360008b835392fee0f5bda3aa82ab83ecf8ed3c
:10037000f9e824ff1ce934fffde84970e15392fedf
:1003800022e5bdf9e5bcfae9fb5392fe227400f5c3
:10039000d374022408f5d25392fe22a2afe433f8bc
:1003a000c2af5392fe906270e0a2e740f5e9c3331a
:1003b000906272f0906270e0d2e0f0e0a2e740fb61
:1003c000e8a2e092af2274fa1201e0a2af33f8c2c1
:1003d000afed900002f0eca3f0a37462f0a374738d
:1003e000f0a3e4f0e9a3f0a37412f0a37442f0ebdd
:1003f000906272f0ea906271f07400f5d575d402e3
:1004000075d601906270e0d2e1f0e0a2e740fbe82f
:10041000a2e092af7f010202145392fe906276e056
:1004200054706430700478038002780775c6807455
:1004300080659e70fa9062707408f088c790ff2cf7
:10044000e0f5f1a3e0f5f3a3e0f5f4a3e0f5f59012
:10045000ff2be0f8700b90ff3012049190ff0680a4
:100460000e740168701890ff0212049190ff30e042
:10047000f5f8a3e0f5fba3e0f5fca3e0f5faa2fe96
:10048000500ee5f1a2e14008e5ff543f4440f5ff7e
:1004900022e0f586a3e0f5c4a3e0f5c5a3e0f5c22c
:1004a00022c008c0098908750900740b7808120178
:1004b000cbfae5094480fbd009d0085392fe2274a0
:1004c000f71201e0909093e064bf7063e5c7f50810
:1004d00012035275c7007c937d007a007b90120353
:1004e0005c7c5d7d077aa37b9012035c909094e026
:1004f00014f5097f00801674032ffef91204a1ee93
:10050000c4540ff5c77c007d0812035c0fefc39540
:100510000940e48508c71203818a088b09a808a945
:1005200009909095e0687003a3e069703e8038e51b
:10053000c7f5087fa57e02eef91204a18a828b839b
:10054000eec4540ff5c778007908e02fffa3e82424
:10055000ff18e934fff9e84970f00eeec39430401b
:10056000d68508c7ef70047901800279007f040204
:100570000214e51c24ecf51c5392fe900001e0905f
:10058000001af0e59d541864107005e0a2e04035b3
:10059000e5c7f8790075c700909000e0640270012b
:1005a0000988c7e9a2e0501d1204bfe96017900056
:1005b000017403f0059290011be0f582a3e0f5833e
:1005c00005921201de120419900001e4f012038d6d
:1005d00012078912076d12018d780812024c12075a
:1005e000581205ed051c051c1208bf80fbeec0e08b
:1005f000a81c1202611207a5051c051cd0e0fe22f2
:1006000074f71201e0151c151ca81c12023ce51c15
:1006100024ecf51ceafeebffee2404f584e43ff540
:10062000858e828f83780812017e900121780812ce
:10063000016b78081202760000000005000000003f
:100640000000002d07000009002d07000009015fd0
:100650000600000902b706000009032607920605f6
:1006600092780812017e0592900125780812010cfb
:100670004032120752f2087480f2087401f2e4f575
:1006800008f509780812024c1207581205ed051cee
:10069000051ce51c2414f51ca81c120244051c05ad
:1006a0001c02056d90011d78081201a2120752f27a
:1006b00008e4f208f280c890011d780812017ee576
:1006c000095407f9e50849701490011d78081201d2
:1006d0007e740b780812013fa90812039b0592e073
:1006e000f9ee2405fce43ffd059290011d78081207
:1006f000017e7402780812013faa08ab091203c6f2
:100700000592e0f508e4f509f50af50b059290016c
:100710001d78081201581207407402f208e4f2082a
:10072000f2f508020683120740740380820592e006
:10073000600912076d12018d02068375c90880fedb
:1007400012074422e4a81cf2087402f2087409f2a9
:1007500008221207447401227c007d00e51c24025b
:10076000faab93e51c2403f8e22404f922a81c74d4
:1007700080f2087404f2087409f208e4f2f508f54e
:1007800009f50af50b087408225392fe90ff2be03e
:10079000f87006900129e4f0227401687006900157
:1007a000297401f02274fa1201e0151c151ca81c12
:1007b00012023ce9fe8a828b83e51c2408f8e2fae7
:1007c00008e2fb0592900129e0704c5386bfeeffd2
:1007d00074ff2f1e046036e586a2e040fa5386fdc2
:1007e0005392fee0f5c1a3e586a2e140e180f8e581
:1007f00086a2e040fa5386fd8a828b835392fee004
:10080000f5c1a3aa82ab83e586a2e150fa1208b033
:1008100070dd4386408041e06401703cc2fe74ff9d
:100820002e1e04602ca2f840fcc2f95392fee0f5a3
:10083000f9a3a2f940e880faa2f840fcc2f98a8242
:100840008b835392fee0f5f9a3aa82ab83a2f95001
:10085000fc1208b070e2d2fea81c120244051c056e
:100860001c7f01020214c084c0858011e586a2e2cb
:10087000500be5c18a828b83f0aa84ab851208b045
:100880006026e586a2e24004a2fa50f68a848b85af
:10089000439201a30592900129e060d0640170ddcc
:1008a000a2fa50d9e5f980ccd085d0845392fe22ab
:1008b000ecf8edf9e824ff1ce934fffde849227c5f
:1008c000047d007a1b7b0012086690001be0540731
:1008d000f9a3e0fce9fdec4d60077a1f7b001208ec
:1008e000667a1b7b00120600225392fe2274fa12d3
:1008f00001e0151c151ceafeebffa81ceef208ef48
:10090000f2aa1cab9379011208e980ee120093223f
:10091000ffffffffffffffffffffffffffffffffe7
:10092000ffffffffffffffffffffffffffffffffd7
:10093000ffffffffffffffffffffffffffffffffc7
:10094000ffffffffffffffffffffffffffffffffb7
:100f000012010002000000205824feff0000010230
:100f1000030109021b0001010480250904000000ef
:100f2000fe01020409210d03e84000010104030948
:100f300004120342006c00750065006700690067d9
:100f400000610016034c006f007700200045006e22
:100f50000065007200670079000a03310032003337
:100f6000003400080344004600550000ffffffff67
:100f7000ffffffffffffffffffffffffffffffff81
:100f8000ffffffffffffffffffffffffffffffff71
:100f9000ffffffffffffffffffffffffffffffff61
:100fa000ffffffffffffffffffffffffffffffff51
:100fb000ffffffffffffffffffffffffffffffff41
:100fc000ffffffffffffffffffffffffffffffff31
:100fd000ffffffffffffffffffffffffffffffff21
:100fe000ffffffffffffffffffffffffffffffff11
:100ff000ffffffffffffffffffffffffffffffff01
:10100000021108023137ffffffffff023ce8ffff3c
:10101000ffffff023d97ffffffffff023e4effff76
:10102000ffffff0225d0ffffffffff023aaeffffe9
:10103000ffffffffffffffffffffff023deeffff90
:10104000ffffff023d72fffffffffffffffffffffc
:10105000ffffff02311dffffffffffffffffffff4d
:10106000ffffffffffffffffffffff023c25ffff2a
:10107000ffffff023ec0ffffffffff023ca8ffff94
:10108000ffffff023142fffffffffffffffffffff8
:10109000ffffffbf2ce5150000000000000000006e
:1010a0000000a27582fe75837f7400121123e4791b
:1010b000347802b800028004f709d8fce4900302f7
:1010c00078e779058002f0a3d8fcd9fa7ae87b07a3
:1010d000901144786779028015e493a3ad82ae83c2
:1010e0008a828b83f0a3aa82ab838d828e83d8e918
:1010f000d9e775820b7583e474021211237582831c
:101100007583ec740212112375d00075813f75311f
:1011100000753202753303759f007593005392fe7c
:101120000210aec09ff59fe473d09f225392fed071
:1011300083d082c09fe493c0e0740193c0e0740246
:1011400093f59f220300000201020300000f00c379
:10115000a88ee8b19dcf7f5eb98b9f41efb055f46b
:1011600001fa00960064004b0032001e001400d605
:10117000be898e000106021213151429417671fff3
:10118000c1fbe84c90728be7b3518963ab23230218
:10119000841872aa612f3b51a8e53749fbc9ca0cd4
:1011a00018532cfd45e37102000040420f0000403f
:1011b0000000fffffffffaffffff0000800062005a
:1011c0000000ff7f0000050006000700000001008e
:1011d0000100000100010202030002000000000003
:1011e000020201000219000000093d0000e4ffffb7
:1011f000fffb349b5f8000008000100000000000b7
:101200000002000000ff00000000000805010000cf
:1012100000000001080500000000000007030000b6
:1012200000800001000080000004000000000007b2
:10123000090000000d00000104070000000000028a
:1012400001000002020000070a261b2c1b321b387b
:101250001b3e1b441bae1ac41ca61c2a1d121d18c3
:101260001d800004058000040606000000800004c4
:101270000280000404800002000b000000800006d1
:10128000003617d0136a195414241dca1cec1b30e5
:101290001da81a580601ffffff0000000080ffff95
:1012a000ffff00000000c000000012112c6ec10200
:1012b00012112c86c10212112cb1c10212112cfe86
:1012c000c10212112c16c20212112c3ec2021211be
:1012d0002c8ec20212112cbec20212112c1fc3028c
:1012e00012112c3bc30212112c57c30212112c7c79
:1012f000c30212112cd5c30212112c64c8021211a0
:101300002c18c90212112c87e90212112c9fe90234
:1013100012112c10ea0212112c53ea0212112ccdd8
:10132000d20212112c61d30212112cd7d302121146
:101330002cedd30212112c19d40212112c2ed4022e
:1013400012112c87d40212112ca8d40212112c06cf
:10135000d50212112c4bd50212112cbcd502121140
:101360002ce7d50212112c6bd60212112c9ad60240
:1013700012112cb9d60212112ccdd60212112c1238
:10138000d70212112c60d70212112c13ce021211a7
:101390002c2fce0212112c65ce0212112c73ce020c
:1013a00012112ca4ce0212112cd1ce0212112cda61
:1013b000ce0212112c1dcf0212112ca3cf0212113a
:1013c0002c10d00212112c61d00212112c90d002dc
:1013d00012112ce4d00212112cb6d10212112cc120
:1013e000d10212112cf4d10212112c25d2021211a9
:1013f0002c76d20212112cb3d20212112c6eeb02f7
:1014000012112c8eeb0212112cb7eb0212112c814f
:10141000ea0212112c95ea0212112cefea021211c3
:101420002c6cec0212112c7b7f0012112ca87f0077
:1014300012112c11f50112112c78f50112112cbe8c
:10144000f50112112ce7f50112112cf3f50112111f
:101450002c16f60112112c5af60112112ca1f601cc
:1014600012112cfff60112112c52f80112112c1935
:10147000f90112112cc0f90112112ce6f901121117
:101480002c2afa0112112cb5fa0112112ccafa01f8
:1014900012112c08fb0112112c28fb0112112c8aad
:1014a000fb0112112c9dfb0112112c88fc01121161
:1014b0002c8cfd0112112cfefd0112112c9c3f0001
:1014c00012112c42410012112cc6410012112c1a8b
:1014d000430012112c89430012112cc34300121136
:1014e0002c8d440012112c0e450012112cf64500d3
:1014f00012112c0e470012112c00480012112c3a28
:10150000490012112c93490012112cfb49001211b1
:101510002c784a0012112c194b0012112c8b4b0005
:1015200012112c244c0012112c8a4c0012112cf890
:101530004c0012112c4d4d0012112cd54d001211e2
:101540002c8b4e0012112c414f0012112c03510014
:1015500012112c31530012112c76530012112cf25f
:10156000530012112c5b540012112ca954001211bb
:101570002c55560012112cf5560012112c815700d3
:1015800012112cc2570012112c43590012112ca415
:10159000590012112cb85a0012112cae5b00121116
:1015a0002cdd5c0012112c185e0012112cf05f0073
:1015b00012112cae620012112c4c630012112cf887
:1015c000630012112ce9640012112c5c65001211e9
:1015d0002cc0690012112c3b6c0012112c096d00fb
:1015e00012112c5b6f0012112c71700012112c9ac9
:1015f000710012112cb1710012112c7bda02121140
:101600002cbada0212112ce7da0212112c14db02c6
:1016100012112c01dc0212112cd8dc0212112c75d3
:10162000e80212112ccee80212112c2fe90212113d
:101630002c00800112112c1e800112112c3b800104
:1016400012112c58800112112c80810112112ceee4
:10165000810112112c06840112112c6c84011211cb
:101660002cf5840112112c35850112112c6985018c
:1016700012112cab850112112c19860112112cc7e5
:10168000860112112cd5860112112c10880112111d
:101690002c468a0112112ccc8a0112112c008b01cc
:1016a00012112c448c0112112c6d8d0112112c8df4
:1016b0008d0112112cb48d0112112cf08d0112111b
:1016c0002c238e0112112c10920112112c38920130
:1016d00012112c84920112112c59980112112ca56f
:1016e000980112112ce6980112112c9299011211f5
:1016f0002c599a0112112ce69c0112112c409e01ca
:1017000012112cb09e0112112cf1a00112112c68a3
:10171000a10112112caca10112112cf8a10112117e
:101720002c50a20112112cf1a20112112c3ba30189
:1017300012112c96a30112112ca0a30112112cd767
:10174000a40112112c7fa50112112c05a601121162
:101750002c60a60112112c20a70112112cc1a70187
:1017600012112c5ea90112112c7fa90112112cb9a2
:10177000ab0112112cebac0112112c90ad01121126
:101780002cf1ad0112112cc3ae0112112cc9af0105
:1017900012112cc1b00112112cd2b00112112cdc8b
:1017a000b00112112cd9b20112112c36b301121151
:1017b0002c65b30112112cccb30112112cfbb30117
:1017c00012112c8eb40112112c22b50112112c838e
:1017d000b50112112cf9b50112112c2fb6011211fd
:1017e0002c64b60112112c83b60112112cdcb60147
:1017f00012112cf6b60112112c23b70112112c3143
:10180000b70112112c70b70112112cdfb7011211a0
:101810002c00e50212112cbce50212112cdee502af
:1018200012112c29e60212112c6ce60212112c4e18
:10183000ec0212112c75e20112112ca1e20112111d
:101840002ce9e20112112c45e30112112ca6e3014f
:1018500012112c6be40112112c86e50112112c18c7
:10186000e70112112cc1ea0112112c9fec01121197
:101870002ca1ef0112112ce5ef0112112cd1f00176
:1018800012112cd6f10112112c50f30112112cc59a
:10189000f30112112ceff40112112c66d702121170
:1018a0002c92d70212112ca9d70212112cadd702fb
:1018b00012112c47d80212112ce2d90212112c005d
:1018c000800212112c66800212112c8380021211e8
:1018d0002cb0800212112cdc800212112c1081021b
:1018e00012112c5f810212112c8e810212112cf127
:1018f000810212112c4e820212112c1c8302121131
:101900002c96830212112c37850212112cef8502be
:1019100012112c82880212112c098c0212112c4dea
:101920008c0212112ca68c0212112c5c8d02121149
:101930002c278f0212112cb78f0212112cf88f0254
:1019400012112c4e900212112ca6900212112ccbc7
:10195000900212112c1e910212112c5f9102121191
:101960002cda920212112cfb930212112c0c94020d
:1019700012112ca5950212112cbb950212112ce309
:10198000950212112c85960212112c9a96021211b0
:101990002ccc960212112cd2970212112c699802ab
:1019a00012112c9f980212112ce7980212112cdbb5
:1019b000990212112c369a0212112c1d9b0212113f
:1019c0002c909b0212112cd49b0212112cba9c0257
:1019d00012112c229f0212112c529f0212112cd292
:1019e0009f0212112c3ba00212112cbee602121112
:1019f0002ccbe60212112ceee60212112c31e80279
:101a000012112c3ee80212112c6ce80212112c3437
:101a1000c90212112c53c90212112c1eca02121132
:101a20002cc4cb0212112c22cc0212112c77cd0225
:101a300012112ce0cd0212112c34ff0112112c6274
:101a4000ff0112112c8cff0112112c1edd0212114c
:101a50002ca7dd0212112cd9dd0212112c49de0255
:101a600012112cebde0212112c19df0212112cc9fb
:101a7000ff0112112cd5ff0112112ca5b801121172
:101a80002cfbb80112112cc4b90112112cd7bb01c7
:101a900012112c75bd0112112c3bbe0112112c4be1
:101aa000bf0112112cebbf0112112c68c0011211e1
:101ab0002c1ec10112112c86c30112112c06c40167
:101ac00012112c6ac40112112c14c50112112c140c
:101ad000c60112112c19c70112112cbfcb01121112
:101ae0002c00ce0112112cb7d00112112c69d30198
:101af00012112c74d60112112c68d80112112c036a
:101b0000db0112112c9ddf0112112ce6e0011211f4
:101b10002c74e10112112cfee10112112c52e20190
:101b200012112c57e10212112cd5e10212112cebeb
:101b3000e10212112c01e20212112c17e202121121
:101b40002c38e20212112c4ee20212112c64e20235
:101b500012112cc0b00212112c50b10212112cd350
:101b6000b10212112cf9b10212112cc5b2021211dc
:101b70002c7bb30212112cbbb30212112c41b40204
:101b800012112cb3b40212112c15b50212112c92a1
:101b9000b50212112ca5b50212112cb9b502121101
:101ba0002ceeb50212112c20b60212112c52b602e4
:101bb00012112c98b60212112cd8b60212112c2c2c
:101bc000b70212112c3bb70212112c44b7021211aa
:101bd0002cd7b70212112c0eb90212112cbc7800ae
:101be00012112ccb780012112cc9790012112cdba8
:101bf000790012112c697b0012112c1e7c0012112d
:101c00002c877c0012112ca07c0012112cb67c00b9
:101c100012112cf07c0012112c337d0012112c7d3e
:101c20007d0012112cc67d0012112c917e00121124
:101c30002c9f7e0012112ca77e0012112ccf7e004b
:101c400012112ce87e0012112c0d7f0012112c2d88
:101c50007f0012112c3d7f0012112c4d7f001211bc
:101c60002c5f7f0012112c6d7f0012112c35e302c6
:101c700012112c62e30212112c4ca00212112c70d2
:101c8000a00212112c85a00212112c23a102121104
:101c90002c49a10212112c7ca10212112c03ae02bc
:101ca00012112c35ae0212112c38b00212112c6a0e
:101cb000df0212112cccdf0212112cf0df02121104
:101cc0002c3fe00212112c93e00212112c34e1029d
:101cd00012112c4de10212112c30b90212112c4daf
:101ce000b90212112c5dba0212112cbcba021211e7
:101cf0002c64bb0212112ce3bc0212112c8fbd020a
:101d000012112cddbd0212112c42be0212112ca8a0
:101d1000be0212112cfabe0212112c86bf02121141
:101d20002c01c00212112cdac00212112c91ec020b
:101d300012112c95ec0212112c97ec0212112c9d11
:101d4000ec0212112ca3100012112c01eb02121143
:101d50002ccceb0212112c1fec02e066701008a3d1
:101d6000e066700a08a3e066700408a3e06622c378
:101d7000e7960809e7960809e7960809e796a2d2c8
:101d800065d03322c3e09608a3e09608a3e0960846
:101d9000a3e096a2d265d03322c021c3e096f521fc
:101da00008a3e096422108a3e096422108a3e0960a
:101db0004221a2d265d033e5217001d3d02122c3c4
:101dc000e7960809e7960809e7960809e79622c307
:101dd000e09608a3e09608a3e09608a3e09622c048
:101de00021c3e096f52108a3e096422108a3e096de
:101df000422108a3e09645217001d3d02122080892
:101e000008eac0e0ebc0e086f0e7a4fa180986f023
:101e1000e7a42afa180986f0e7a42afa180986f036
:101e2000e7a42afa1986f0e7a4fbe5f02afa1908d4
:101e300086f0e7a42bfbe5f03afa190886f0e7a450
:101e40002bfbe5f03afa18180986f0e7a4c5f02b49
:101e5000fbe43afa1908e7c5f0c6a426f6e5f03b1c
:101e6000fbe43afa1886f0e7a4f6e5f00826f6e473
:101e70003b08f6e43a08f6d0e0fbd0e0fa22e4cfe3
:101e8000c0e0e4cec0e0e4cdc0e0e4ccc0e075f05a
:101e900020e626f608e633f608e633f608e633f6db
:101ea000181818ec33fced33fdee33feef33ffc3af
:101eb000ec9709ed9709ee9709ef97191919400f5b
:101ec000ffec97fc09ed97fd09ee97fe191906d571
:101ed000f0bfecf709edf709eef709eff71919195b
:101ee000d0e0fcd0e0fdd0e0fed0e0ff22121f5594
:101ef000181818121e7e121f4419191922121f4495
:101f0000191919080808e618181820e7e0121e7eab
:101f1000121f5518181822090909e719191920e77d
:101f2000dc080808e618181820e703021e7e121fb6
:101f300055181818121e7e121f55181818121f4413
:101f400019191922e4c397f709e497f709e497f7f9
:101f500009e497f722e4c396f608e496f608e496b7
:101f6000f608e496f6226017080808c6a2e713c62a
:101f700018c613c618c613c618c613c6d5e0e9227c
:101f80006016080808c6c313c618c613c618c613b9
:101f9000c618c613c6d5e0ea2270090808082260f0
:101fa00016181818c6c333c608c633c608c633c6c3
:101fb00008c633c6d5e0ea22e627f60809e637f672
:101fc0000809e637f60809e637f622e026f608a300
:101fd000e036f608a3e036f608a3e036f622e0265f
:101fe000f008a3e036f008a3e036f008a3e036f0ee
:101ff00022c3e697f60809e697f60809e697f60879
:1020000009e697f622c3e0c696f608a3e0c696f660
:1020100008a3e0c696f608a3e0c696f622e056f6b8
:1020200008a3e056f608a3e056f608a3e056f62209
:10203000e647f60809e647f60809e647f60809e61e
:1020400047f622e046f608a3e046f608a3e046f687
:1020500008a3e046f622e046f008a3e046f008a315
:10206000e046f008a3e046f022e066f608a3e0664a
:10207000f608a3e066f608a3e066f622e0f608a3f9
:10208000e0f608a3e0f608a3e0f622e6f008a3e6ef
:10209000f008a3e6f008a3e6f022e0faa3e0fba331
:1020a000e0fca3e0fd22eaf0a3ebf0a3ecf0a3ed4b
:1020b000f022e0fca3e0fda3e0fea3e0ff22ecf0b1
:1020c000a3edf0a3eef0a3eff022e0f8a3e0f9a374
:1020d000e0faa3e0fb22e8f0a3e9f0a3eaf0a3eb27
:1020e000f022cac0e0e6f0a308dafad0e0fa22ca89
:1020f000c0e0e0a30592f0a30592daf6d0e0ca2290
:102100005392fefae9fb7921e7f0a309dafae8f045
:10211000a3ebf9f0a3ecf0a3edf0a3eef0a3eff046
:10212000a3e520f0a3e5f0f0a3e592f0a3e584f0a9
:10213000a3e585f0a3e581f0a3e531f0a3e532f056
:10214000a3e533f0a3d0e0fad0e0f0a3caf0eac0f0
:10215000e0e0c0e07a007b00225392fecac0e0ebd0
:10216000c0e07921e0f7a309dafae0f8a3e0f9a3e7
:10217000e0fca3e0fda3e0fea3e0ffa3e0f520a3c5
:10218000e0f5f0a3e0c0e0a3e0f584a3e0f585a3cb
:10219000d0e0f592d0e0fbd0e0fae0f581a3e0f5e5
:1021a00031a3e0f532a3e0f533a3d0e0d0e0e0c006
:1021b000e0a3e0c0e0ea4b70027a0122b90010bb54
:1021c0000008e88af084f8aaf022e4fbc8fa22ebbf
:1021d00070227b10c833c8c933c9335007c39ac3b0
:1021e000dbf280069a50012adbeac833f4c8c9330f
:1021f000f4c9fa2275f008e4c833c8c933c933c931
:102200009ac99b5004c92ac93bd5f0ecfbc833f4ea
:10221000c8e4c9fa22600d08c6a2e713c618c6139f
:10222000c6d5e0f322600c08c6c313c618c613c691
:10223000d5e0f422700422600d18c6c333c608c668
:1022400033c6d5e0f41822253210af08f532400c21
:1022500015338008f53240021533d2af2200c0d0ca
:10226000253210af08f532500c05338008f5325096
:10227000020533d2afd0d0222532f58210af08f557
:1022800032400c15338008f53240021533d2af8549
:10229000338322c5822532c582c583353310af070b
:1022a000f5338582328007f533858232d2afc5831c
:1022b000222532f582e43533f583222532f584e494
:1022c0003533f585222532f8e43533f9222532fa03
:1022d000e43533fb222532fce43533fd22e473532d
:1022e00092fe2532c582c0e0e53334ffc583c0e0ed
:1022f000e532c3958224f810af0885833385823296
:102300008008858333858232d2afcef0a3e520f0fa
:10231000a37821e608f0a3defaeff0a3e58124fa22
:10232000f8e608f0a3e608f0a3e608f0a30808e63c
:1023300008f0a3e608f0a315811581d0e0fed0e0f7
:10234000f8158115811581e8c0e0eec0e0225392b6
:10235000fe2532c582c0e0e53334ffc583c0e0e529
:1023600032c3958224f910af088583338582328089
:1023700008858333858232d2afcef0a3e520f0a367
:102380007821e608f0a3defaeff0a3e58124fbf85c
:10239000e608f0a3e608f0a30808e608f0a3e608bc
:1023a000f0a315811581d0e0fed0e0f815811581ec
:1023b000e8c0e0eec0e0225392fe8533838532828e
:1023c000e0a3fee0a3f5207821e0a3f608dffae021
:1023d000a3ffe0a3c0e0e0a3c0e0e0a3c0e0e0a36f
:1023e000c0e0e0a3c0e010af08858232858333806f
:1023f00008858232858333d2afd083d0825392fe58
:102400000211295392fe853383853282e0a3fee0d8
:10241000a3f5207821e0a3f608dffae0a3ffe0a30c
:10242000c0e0e0a3c0e0e0a3c0e0e0a3c0e010afe4
:10243000088582328583338008858232858333d252
:10244000afd083d0825392fe22c0925392fec0d06e
:102450002532c582c0e0e53334ffc583c0e0e532f4
:10246000c3958224f210af088583338582328008b9
:10247000858333858232d2afc8f0a3e9f0a3eaf0b6
:10248000a3ebf0a37921e709f0a3d8faecf0a3edd0
:10249000f0a3eef0a3eff0a3d0e0f0a3d0e0f0a320
:1024a000d0e0f0a3e520f0a3e5f0f0a3d0e0f02227
:1024b0005392fe853383853282e0c0e0a3e0f9a326
:1024c000e0faa3e0fba37821e0f608a3dffae0fc42
:1024d000a3e0fda3e0fea3e0ffa3e0c0e0a3e0c013
:1024e000e0a3e0f5d0a3e0f520a3e0a3f5f0e0a39e
:1024f000c0e010af0885833385823280088583333e
:10250000858232d2afd0e0d082d083f592d0e0f88d
:10251000d0e032e584f0a3e585f022e0a3f584e085
:10252000f5852274048006740280027401c0e0f410
:1025300004122278d0e01220e22274048006740291
:1025400080027401c0e0f404122278d0e01220ef7f
:1025500022d083d082c5f0e493a3c5f0c395f0f5f3
:10256000f0e493a3c395f04005e5f0048001e47521
:10257000f002a42582f582e5f03583f583e493a388
:10258000c0e0e493c0e022d083d082e9c0e0e493cd
:10259000a3c386f0c5f095f0f908e493a386f0c5cf
:1025a000f095f0700be493a3c3994005e904800211
:1025b000a3e475f002a42582f582e5f03583f58366
:1025c000d0e0f9e493a3c0e0e493c0e022ffffff72
:1025d000c0e0c0d075d008c092c082c083c0f07582
:1025e0009800e5a8f8c2af5392fe9004dae0d2e179
:1025f000f0753400e8a2e7e433fee8a2e792af12f8
:1026000012f2d0f0d083d082d092d0d0d0e032c0bd
:1026100082c0835392fe9004a7e4f0a3f0a3f0a33a
:10262000f0d083d0822274f712234e79001219e879
:102630009003ef123831eac398f8eb99f9e82404d3
:10264000fee439ff9003fc122f84c3ee9cef9d4003
:10265000299003fa122f849003fee02af8a3e03bae
:10266000f9e8c39cf8e99df9122cc7a3ecf0a3ed9f
:10267000f09003fcecf0a3ed80239003ef122b3bd2
:102680009003fc122c939003fc1238319003f1124a
:102690002cca9003f8e070047402800114f07aed03
:1026a0007b0312383b800ff08532828533831225fd
:1026b0001b740212225d7f0202240374f712234e60
:1026c000e9fe9003f9e0f8ee600924fe601d146055
:1026d0001a80329003f6e0a2e35009e860279003e5
:1026e000f9148020c2e2f0d2e380199003f6e0a250
:1026f000e2500c740868600d9003f9e0048005c294
:10270000e3f0d2e2f09003f7e070089003f574ff75
:10271000f0804990600a1228c349703d90618fe0b3
:10272000c0e09003f9e0f87408c398f8d0e0b8006e
:10273000028004c313d8fcf52174ff652170099051
:10274000600ae4f0a3048010e5212401f8e43400d9
:10275000f990600ae8f0a3e9f01226260226b67482
:10276000f712234ee9fe24fc600624fe602a800d49
:102770009004c0e06401705d121700805890041a44
:10278000e064017013900414e4f0ee700b7b091206
:10279000307efa7900123b5d900414e070089004da
:1027a0001274fff0802f90618fe0ff79001219e81a
:1027b0008b22a922900416e02af8a3e039f9740fbd
:1027c0005ffae82af8e439f990040c122cca7a0a64
:1027d0007b0412383b0226b674f712234e74fe12a5
:1027e00022781225139004641228c32412fae439c3
:1027f000fb90605ce060088a828b83e0d2e1f0e8c5
:102800002430fce439fde82432f584e439f5859080
:10281000605ae0700690605ee0603a8a828b83e0e6
:10282000a2e1401dd2e1f0e82422f582e439f583eb
:10283000122b311222348c828d83e521f0a3e52204
:10284000f0e40592f0a3f07900853282853383535a
:1028500092fe0226aee8241ef582e439f583123892
:1028600028858482858583e02ef0a3e03ff08c826a
:102870008d830592e0fca3e0fdc30592e09ca3e0fc
:102880009d50c488828983a3a3a3a3a3a3a3a3a3c6
:102890008582848583858a828b83e0a2e1500474db
:1028a000088002743e0592f07b028882898305923b
:1028b000a3a3a3a3a3a3a3a3e0fa7900123b5d798a
:1028c000018086123835e82274f512234e74fe1208
:1028d0002278122513122f64f584e43ff5850592c2
:1028e000e0fc7003022b2cee242ef582e43ff583ee
:1028f00005921238318e828f83a3a3a3a3a3a3a32f
:10290000a38582238583248e828f83a3a3a3a3a37d
:10291000a3a3a3a3aa82ab83ee24341235c86870a4
:1029200003a3e069702d74026c7003022ac5740160
:102930006c70030229c1740c6c7003022b2c740d93
:102940006c7003022b2c74096c60258a828b837453
:10295000228059ec14606a147003022ac524fa60bc
:102960001c14600c146046147003022b08022b2cfc
:10297000906008e0a2e65003022b2c8030ee243950
:10298000f582e43ff583801388828983a3a3a3e0c3
:1029900064037003022b2c888289831228c3497038
:1029a000e78a828b83e0641370037416f07b0285e0
:1029b0002382852483e0fa7900123b5d7901022ba2
:1029c0002eee24551232b5ee244cfce43ffdea24f1
:1029d000fff521eb34fff522e521687003e522695c
:1029e0007079ee244d122bc08e828f83122b398c7e
:1029f000828d83e025e0f8e433f9e82403f8500100
:102a0000098e828f83a3a3a3a3122ccb900495e0fd
:102a1000a2e0500d8e828f83a3a3a3a3a3a3122ca5
:102a2000ca9004afe4f0a3f0a3f0a37402f0900402
:102a300095e0a2e04003022b2c906062e4f08c82cf
:102a40008d83e0f875f0e2a4c8aaf075f004a42a1a
:102a5000f9e8122f59122cca022b2cea687002ebeb
:102a6000696003022b2c752109752200782112253b
:102a700027ee241bfae43ffb121d4e740212225d66
:102a8000900495e0a2e05007eefaeffb1232c1e4a9
:102a90000592f0ee2422f582e43ff5830592122b95
:102aa00031122234ee2430f582e43ff583e521f043
:102ab000a3e522f0ee2432f582e43ff583e4f0a3af
:102ac000f07b08805ae8240108500109ee245c12ca
:102ad00035c8687003a3e06970527521057522003e
:102ae0007821122527ee2457fce43ffdee2424fa3a
:102af000e43ffb121d4e740212225deefaeffb1250
:102b000016fae40592f08024eefaeffb1212f8e4d4
:102b10000592f00592900495e0a2e0500f7b0785a6
:102b20002382852483e0fa7900123b5d790002302c
:102b300090122cbf7403782122a3a3e028f0a3e015
:102b400039f02274f812234e74fe122278122513e3
:102b5000900464e0f584a3e0f5851228c8e970507c
:102b60001227d8e9704ae584242ef582e43585f5ec
:102b700083e02401f0a3e03400f0906008e0c0e0be
:102b8000e5842436f582e43585f583d0e0f0e584ec
:102b9000241ef582e43585122bc40592a3a3e028f8
:102ba000f0a3e039f005929004641232bb12383b76
:102bb00085328285338312251b740212225d803494
:102bc000f582e43ff583122bca22e0f8a3e0f9e88e
:102bd00028f8e933f922ee241ef582e43ff583124a
:102be0002f7024fcf8e934fff98e828f83a3a3a30e
:102bf000a3122cca7f0102240374f712234e74fe21
:102c00001222781225139004cdeaf0a3ebf0900481
:102c1000cde0f8a3e0f5838882a3a3ac82ad8390d6
:102c200004b4c8241ef584e438f5850592e0f8a3c1
:102c3000e0f9e828f8e933f9900497e0f521a3e0fa
:102c4000f522122ca90592e028f8a3e039f98c822c
:102c50008d83122cca9004af122c9c8c828d83120f
:102c60002c939004b1122c9c7a207b4e1221bc88ac
:102c70002189228c828d83e09521f0a3e09522f0ba
:102c80009004b6122c9ce828f8e933f9e8122f5189
:102c90000226a7c3e098f0a3e099f02212383590fd
:102ca0000497122cbf122ca922e88521f0a4c8aaef
:102cb000f08522f0a42afa8521f0e9a42af922e07d
:102cc000f521a3e0f522229003efe8f0a3e9f0223a
:102cd00074f312234e74fe122278122513122f64fd
:102ce000f523e43ff524852382f583e0640c70111d
:102cf000906008e054036009852382852483740d65
:102d0000f0ee2412f584e43ff5850592e0a2e3504d
:102d100008c2e3f00592022f358e828f830592a3bd
:102d2000a3858221858322906062e0601079101271
:102d300019e8852182852283eaf0a3ebf01228c8e6
:102d4000e96003022f3e1227d8e96003022f3e906c
:102d50006008e0c0e0ee2436f582e43ff583d0e081
:102d6000f09061d5e0f89061d7e06805926005e0e9
:102d7000d2e28003e0c2e2f005929004b11232bbcd
:102d8000906062e06016ea24c0faeb3437fb123b35
:102d9000329004b6122f70122f518012123b1c90e9
:102da00004b6122bc6906064e028f0a3e039122f1d
:102db0008a24fff0a3e034fff0ee242b1235c890f4
:102dc00004b3f0ee24201232b5ee242ef525e43fb4
:102dd000f526ee245cf584e43ff585ea4b700302aa
:102de0002e73900499e0f8852382852483e0fc709b
:102df0001e122f75707dee2439122f787075e8a29f
:102e0000e04070ea2401f8e43bf9900497804a74aa
:102e10000d6c705f122f75705aee2439122f787076
:102e200052e8a2e0404d858482858583852584858e
:102e300026850592e0f8a3e0f90592e0c398f8a38f
:102e4000e099f9ea24010a50010bc398eb99900428
:102e5000975006eaf0a3eb8004e8f0a3e9122f8a6a
:102e6000f8a3e0f99004b4122ccaeefaeffb122b8f
:102e7000f9805a9004977401f0a3e4f0ee241e1236
:102e80002bc0852182852283122b3b9004af123800
:102e900031852182852283122c9385238285248388
:102ea000e0640c7028852582852683e02402f8a33f
:102eb000e03400f90592e0faa3e0fbc3e89ae99b4d
:102ec000400b85238285248374020592f08e828fc5
:102ed000835392fea3a3a3a3a3a3858284858385a2
:102ee0009060641238317a717b021221bc8922e829
:102ef0002405f8e43522f9858482858583122cca5d
:102f00008e828f83a3a3a3a31232bb85848285857f
:102f100083e0f8c3ea98eb99a2d265d0335007ea70
:102f20000592f0a3ebf05392fe12382e8525828590
:102f30002683122b3b9004641232bb12383b85323d
:102f40008285338312251b740212225d7f060224c0
:102f500003122f59e8f0a3e92224eaf8e93402f930
:102f600090606422900464e0fea3e0ffee240a2255
:102f7000122bcae822ee2432f582e43ff583122fa9
:102f800084ec4d22e0fca3e0fd22f0852182852225
:102f900083e02274f512234e74fe12227812251358
:102fa0008031c2e5123079c0e09004bee012305e9c
:102fb000d0e0f09004bee004f0a3e004f0a3e0044d
:102fc000f09004c2e0700c7401f07b007a0079008c
:102fd000123b5d90605ae0f521906002e0a2e05063
:102fe000047800800590605de0f89004bfe0fae5a9
:102ff0002128f8e43400f9e86a7001e96058900487
:10300000bee0f52374012523547ff521e52312301a
:103010005ee0f808089004bee028f074802521f5f1
:1030200082e43460f5830592900464e0f8a3e0c87c
:103030002408f584e438f585e0a2e70592e0400332
:10304000022fa2d2e5f012307024db123079fa128e
:1030500030704a022fb2853282853383803b123032
:103060006222547ff8748028f582e43460f583226c
:103070009004bee0123062e022f012307e22900412
:1030800064e0f8a3e0c82408f582e438f583e02280
:103090008532828533835392fe12251b74021222dd
:1030a0005d7f0402240374f512234e74fe1222780d
:1030b00012251389210592900464e0f582a3e0f5be
:1030c00083858284858385a3a3a3a3a3a3a3a3e06d
:1030d000a2e740469004c1e0f8906054e0c398f540
:1030e000229004c1e02522f0ae82af838011ee244d
:1030f00039fae43ffb12161cea4b600312182685ce
:10310000222374ff2523f5220470e3e521a2e64083
:10311000097900eefaeffb12178a023090c0e074d2
:10312000f11224498535c675a70075a100795012a2
:103130001a067f010224b0c0d075d01875bf00d028
:10314000d032c0e0c0d075d018c092c082c083c059
:10315000f08535c6e591fe759b00f4f5915392fe1e
:10316000906002e0a2e050047800800278087900c4
:10317000e844015e6003122f93eea2e55004f912b9
:1031800030a6eea2e75029e5a8f8c2af9004dae035
:10319000d2e0f0753400e8a2e7e433f9e8a2e79260
:1031a000afe594a2e24009759403e594a2e250fad7
:1031b000eea2e64003023282906061e0f99004bf23
:1031c000e4f09004c1f09004641232bb8a828b83d5
:1031d000a3a3a3a3a3a3a3a3e02410601224fc60d1
:1031e0000924fc700f1226bb806612275f806112d3
:1031f0001640805c900494e0600514601480239075
:103200006060e06480601be0c0e012329fd0e0802c
:1032100010906058e0f890605ce028f812329fe06f
:1032200028f0906060e064806016e0c0e090046484
:10323000e0f8a3e0c82413f582e438f583d0e0f089
:10324000900495e0a2e05005122cd08003122b438d
:10325000906059e0f89004a7e028f0906058e0f8fa
:103260009004a8e028f090605a12329690605e12a6
:10327000329690605ce0f89004aae028f012162ed6
:103280008004a2e750031238fdd0f0d083d082d062
:1032900092d0d0d0e032e0f89004a9e028f022ea01
:1032a000242cf582e43bf583e0fa746f2af582e47e
:1032b0003404f58322f582e43ff583e0faa3e0fbd2
:1032c00022c082c0835392fe9004b1e4f0a3f09038
:1032d00004aff0a3f01216469004b6eaf0a3eb0296
:1032e000262074f712234e74fe12227812251390b2
:1032f0000464122f8412382eec2429f582e43df563
:1033000083ec242bfae43dfb8a848b8574016849a5
:103310007012e0f80592e028fac39425402974db86
:103320002afa8023e0f521e88521f0a4f8aaf085a7
:1033300021f0e9a42af90592e0fae82af8e439f93b
:103340007a257b001221bceaf0ea131313541ff80c
:10335000ec28f8e43df9e82424f582e439f5830506
:1033600092e0c0e074075af8d0e0b800028004c3cd
:1033700013d8fca2e040288005e8cac39afaec24de
:10338000e5f582e43df583e0f8eac39850ebec2ada
:10339000f8e43df9e824c0f582e439f583e0faec7d
:1033a000242cf582e43df583ea0226a774f6122365
:1033b0004e74fe12227812251390041be0906002d6
:1033c0006004740e8002740ff0900415e0906001a8
:1033d000f09008131220ca9061951220d612179609
:1033e00090041ae0f521740165219004137040e007
:1033f0005402f97a1c7b04121664900413e0a2e0d4
:1034000050097aa17b0475214080077a9b7b047563
:103410002100a2e150047e8080027e0075230678a0
:103420002312252b7c1c7d04e5214e44018068e09d
:10343000a2e050087aa17b04784080067a9b7b0446
:10344000780005929004411225427c227d04741775
:103450002521f582e43408f5830592e048f9121637
:103460006a740112225d90041ae0f8600574026823
:10347000702e900413e0a2e050087aa17b047840fb
:1034800080067a9b7b0478000592900461122542a5
:103490007c427d04e84404f912166a740112225d2c
:1034a000900413e0a2e0e433f912165e75910090e7
:1034b000041be0906182600474c8800274c0f085cf
:1034c000328285338312251b740212225d7f030230
:1034d0002403c082c0835392fe906002740ff09068
:1034e00003f8e004f064037002e4f0e02425906047
:1034f00000f09008131220ca9061951220d6900314
:10350000f6e05420f912165e1217969003f6e0a228
:10351000e15004d2f08002c2f0a2f0e43390600cdb
:10352000f09003f6e0a2e1503575d90da2e5500404
:10353000784080027800e84403f5d9e0a2e550061f
:103540007aa17b0480047a9b7b047906121634747a
:103550000675d9001470fae5e170fc75e195759176
:103560000090618274c102262074f812234e74fe0a
:103570001222781225131236091217961235ff12ed
:1035800020ca9061951220d61236371232e21236d6
:1035900030f584e43ff5858584828585831236186d
:1035a00012178aee24121235c8a2e250180592e0d2
:1035b000f8a3e0f58388820592a3a3e02402f890a3
:1035c00061d5e028f0022bb0f582e43ff583e022dc
:1035d00074f812234e1236091217961235ff122074
:1035e000ca9061951220d61236371232e212363066
:1035f000f582e43ff58312361812178a022bd6eeb5
:103600002414f582e43ff58322900464e0fea3e0f5
:10361000ff906002740ff022123835ee2437f582e5
:10362000e43ff583e8f0a3e9f07900eefaeffb223e
:10363000123680ee243922ee24361235c890600806
:10364000f0ee24181235c8906005f0ee24191235fa
:10365000c8906006f0ee241a1235c8906007f02278
:1036600074f812234e1236091217961235ff1220e3
:10367000ca9061951220d6123637123680022bd6a8
:10368000ee242cf582e43ff583e0906000f0759124
:10369000009004cce0906182f02274f112234e7409
:1036a000fe1222781225137521007522007c6b7d95
:1036b00004801f888289831238288c828d83eef0e3
:1036c000a3eff088828983e521f0a3e522f0882129
:1036d00089228c828d83123828ee4f70398c828d2e
:1036e00083eaf0a3ebf08a828b83e4f0a3f0aa21b3
:1036f000ab2285328285338312251b740212225d30
:103700007f08022403e5232527f8e5243528f98ad4
:10371000828b83122b39eef8eff988828983a3a379
:103720008a848b850592a3a3e0f523a3e0f5240505
:1037300092e0c39523f523a3e09524f5248a828b98
:1037400083a3a3a3a3a3a3e0f525a3e0f526c3e5e4
:10375000239525e5249526a2d265d033403e8a8262
:103760008b83122cca8a828b83a3a3a3a385828412
:10377000858385123831c3e52398e52499a2d26563
:10378000d033500d858482858583e523f0a3e5241d
:10379000f08c828d83eaf0a3eb0236ed8882898378
:1037a000a3a3a3a3a3a3e0f527a3e0f528c3e4956f
:1037b00027f525e49528f526c3e5259523e52695e7
:1037c00024a2d265d03350288a828b83a3a3a3a3db
:1037d000a3a3a3a3e0a2e75003023705888289834d
:1037e000a3a3a3a3a3a3a3a3e0a2e750030236b31a
:1037f00088828983a3a3a3a3858284858385c3e468
:103800009523fce49524fd123828c3ec9eed9fa27d
:10381000d265d033500b858482858583ecf0a3ed8f
:10382000f0e8fce9fd0236d2e0fea3e0ff229004be
:103830009712383522e0f8a3e0f92274f712234eec
:1038400074fe122278122513ea4b6031a2afe433e2
:10385000fec2af12369a8a828b838016aa82ab830d
:103860008582848583850592e0f582a3e0f5831245
:10387000369ae582458370e4eea2e092af0226a874
:1038800074f812234e74fe122278122513eaf8eb14
:10389000f9e8496063e5a8f521c2af9004641238e5
:1038a00028eefaeffb8a828b83a3a388848985059f
:1038b00092a3a3e0fca3e0fd0592e0c39cfca3e07f
:1038c0009dfdc3ec9405ed123a864024eefceffd1d
:1038d000ec2412f582e43df583e0d2e4f08882899d
:1038e00083eaf0a3ebf090046b122cca7901800af2
:1038f000e521a2e7a2e792af7900022bb074f5129e
:10390000234e74fe12227812251379001219e88ac8
:10391000238b247977121a069061b1e4f0e070f8f5
:103920007403f0e0640370f890046b123831900473
:1039300064122ccae8497012123a8ee594a2e24051
:1039400003023a7e759400023a7e8882898312329d
:10395000bb90046beaf0a3ebf088828983a3a312e7
:103960002cbf88828983a3a3a3a3e02521f8a3e029
:103970003522f9e824fdfee934ffff906060748091
:10398000f0e521c39523e5229524fb900464e0f53e
:1039900084a3e0f585e5232401f8e43524f9858442
:1039a00082858583a3a3a3a3a3a3a3a3e02410607c
:1039b0002f24fc600624fc600780451233ac80692c
:1039c000123a84501688218922c3e89ee99f400854
:1039d000e82401fee43522ff122cc71234d28049bc
:1039e000123a84501688218922c3e89ee99f400834
:1039f000e82401fee43522ff122cc712179c80290f
:103a0000900495e0a2e05005123569801ca985e577
:103a1000842412f582e439f583e0a2e45008c2e47c
:103a2000f012366080031235d0aa21ab2279301211
:103a300019faeefaeffb79401219fa7954121a06c4
:103a4000e521c39523f8e5229524f9c3e89401e91b
:103a5000123a86500c1217aee5e170fc75e1218038
:103a60001d900367e0a2e04012aa21ab221219f4d4
:103a70009004ab1220a6123a8e80031217ae1218d1
:103a8000b6023056c3eb9400a2d265d03322e5a82b
:103a9000f8c2af9004dae0c2e0f0753400e8a2e7c3
:103aa000a2e792af22000000853487c2af22c0e0b7
:103ab000c0d075d018c092c082c083c0f074fc1210
:103ac00022475392fe9004dbe0601c1216589003cc
:103ad00067e054117008e5c654384487f5c6900471
:103ae000dbe4f0c2c78020c2c7aa32ab331217a8ea
:103af000e9640170129004db7401f0853282853331
:103b00008312209a1218aa753400740412225dd010
:103b1000f0d083d082d092d0d0d0e03275c3007480
:103b200020c39afa744e9bfbeaf5a2ebf5a35392dd
:103b3000fe22c02175c301e5a2f521e5a375c300ee
:103b4000f9e5212420f8e9344ef9e8c39af8e99b15
:103b5000f9e8f5a2e9f5a3d0215392fe2274f512fb
:103b6000234ee9feeaff8b21753400a2afe433f562
:103b700022c2af90057ee0f52474012524540ff590
:103b80002390057de0652370057900121a60e52415
:103b900075f003a4f8a9f0740b28f8740539f9e856
:103ba0002442f582e439f583eef0e82443f582e41b
:103bb00039f583eff0e82444f582e439f583e52113
:103bc000f0e52390057ef0e522a2e092af7f0402ab
:103bd0002403c082c08374fc122247e5a8f8c2af58
:103be000e5958532828533835392fef0e596c0e0f9
:103bf00074011222b1d0e0f0e597c0e07402122205
:103c0000b1d0e0f0e8a2e7a2e792af74031222b1cc
:103c1000e4f085328285338312209a740412225d87
:103c2000d083d08222c0e0c0d075d018c092c082ac
:103c3000c083c0f0121bda123bd29006121220a6eb
:103c4000e58955ab900616f0e580900619f09006d0
:103c500016e0f4f5899062d0e0f8a2e150279006d2
:103c600016e0a2e5501f53abdf9062d0e0a2e0e483
:103c70003390061cf0900616e0c2e5f07b307a0027
:103c80007906123b5d900616e0600e7b007a0079a3
:103c900006123b5d7900121be6c2c5d0f0d083d07e
:103ca00082d092d0d0d0e032c0e0c0d075d008c071
:103cb00092c082c083c0f0121bda123bd29006126f
:103cc0001220a6e58a558df8900617f0e59090062b
:103cd0001af0e8f4f58a7b017a007906123b5d79e7
:103ce00001121be6c2eb80b3c0e074f012244990cd
:103cf00061a9e06017c2afe589f8e5abf975ab00e3
:103d0000e4f090624bf0888989abd2af900621e055
:103d1000640f7012e5c7f8900368e0f5c790ff1cc8
:103d2000e0f4f5ae88c7e5bbf8e5baf521e8fb900d
:103d30000621e025e0f8e433f9742228f5827406c0
:103d400039f583e521f0a3ebf0900621e02410fb88
:103d50007a007906123b5de5a8f8c2af9004dae07c
:103d6000c2e2f0753400e8a2e7a2e792af7f020258
:103d700024b0c0e0c0d075d018c092c0f0e5d1f832
:103d800075d100c2c0a2e350097b037a0079041206
:103d90003b5dd0f0023ca1c0e0c0d075d010c09215
:103da000c021c022c082c083c0f05392fe90071a87
:103db000123eb2602a9006d5e0700c7401f07b00d0
:103dc0007a007904123b5dee90071af0e5c1c0e07d
:103dd000741c2521f582e43407f583d0e0800be5df
:103de000c4a2e650069006d47401f0023ea1c0e0e1
:103df000c0d075d010c092c021c022c082c083c084
:103e0000f0c2e95392fe9006d7e0fa9006d6e09a07
:103e1000543ff8602974d82af582e43406f583e02b
:103e2000f974012a543f9006d7f089c1900718e031
:103e30006870197b027a007904123b5d800ee5a858
:103e4000f8c2af9004dae0c2e3123f208053c0e032
:103e5000c0d075d010c092c021c022c082c083c023
:103e6000f05392fe9007a4123eb2602990075fe0e3
:103e7000700b7401f07b00fa7904123b5dee900741
:103e8000a4f0e5f9c0e074a62521f582e43407f535
:103e900083d0e0800be5fba2e6500690075e74013c
:103ea000f0d0f0d083d082d022d021d092d0d0d008
:103eb000e032e0f52174012521543ffea3e06e229b
:103ec000c0e0c0d075d010c092c021c022c082c056
:103ed00083c0f0c2ea5392fe900761e0fa90076057
:103ee000e09a543ff8602974622af582e43407f5b9
:103ef00083e0f974012a543f900761f089f9900733
:103f0000a2e06870197b027a017904123b5d800e91
:103f1000e5a8f8c2af9004dae0c2e4123f20808145
:103f2000f0753400e8a2e7e433f9e8a2e792af22a3
:103f30000306030202030302060203030105020251
:103f40000100010101010000030200000500020759
:103f5000070002030101010806060503040401032a
:103f60000602020202010f00080305050207040110
:103f70000109010102010102010201010305000121
:103f80000002000000030202010505030100000019
:103f900002010404020302040104010074f012226d
:103fa000df74f0122247e5c7f528900368e0f5c7f3
:103fb00075211075220078211225277cdd7d037480
:103fc000021222cd121d4e740212225d782112259a
:103fd000277c007d007add7b03121d5474021222bf
:103fe0005d752100805a852182a882e875f06fa452
:103ff000faabf0900365124135246ef582e43bf58f
:1040000083e0a2e050387f008f82ac82e875f03701
:10401000a4faabf09003d31241352cfae43bfbea4f
:10402000241af582e43bf583e0fa74dd2cf582e492
:104030003403f583e04af00fefc3941040ca052122
:10404000900364e0f8e521c398409b752100852129
:1040500082a88274dd1269003403f583e0fa8532a8
:1040600082853383e5821269003583f583e06af047
:104070000521e521c3941040d5752100852182ae2c
:10408000827f00124124a3a3a3a3a3a3a3a3e0f8c8
:10409000124124e048f52260778f27e522a2e05004
:1040a0005c7523018f24e5277823122234a823741a
:1040b000dd2ef582e43403f583e058600479018055
:1040c00002790074e52ef582e43403f583e058604c
:1040d00004e9d2e1f98e238f247403782312223469
:1040e000852725e5232525fae43524fb74a02af548
:1040f0008274f73bf583e0fa7b00121bd40527e5b9
:1041000022c313f522e527c394085004e522708bdf
:104110000521e521c39408500302407c8528c7741b
:10412000100245ee853282853383e5822ef582e4e6
:104130003583f5832212413922e02afaa3e03bfbc2
:10414000ea2274f61222dfe975f037a4faabf01216
:1041500013109003d312692de5c7ff900368e0f5b3
:10416000c790f79e125e02e4c39af521741f9bf577
:104170002278211225277c007d00121d5474021222
:10418000225d8fc779087cd57d037a007b001218e9
:1041900086e96408601b75210875220078211225c4
:1041a000277c007d007ad57b03121d5474021222f5
:1041b0005d800e85328285338312251b74021222a4
:1041c0005d7f020223b774f01222df74fe122278a0
:1041d0001225138a278b281264e10592a385822178
:1041e000858322125e02ea4b60158e828f83a3a321
:1041f000a3858223858324c3e09aa3e09b5008799a
:10420000011214cc0242f505929007ef12253a7b79
:104210000705921264d9121a18740412225d8e8254
:104220008f83a3a3a3a3a38582258583268e828f54
:1042300083e014604a14606414602c14600d1470e0
:10424000030242db24fe607d0242f585238485243f
:1042500085059212253e852182852283059212438f
:10426000121213640242ee782512252785238485d5
:104270002485059212253e1242ff121358801678ab
:1042800025122527852384852485059212253e1233
:1042900042ff12132e740412225d806078251225cd
:1042a00027ee2417f584e43ff585059212253e8517
:1042b000238485248512253e1242ff12131c7406a6
:1042c00012225d8037ee2417f582e43ff583e0f596
:1042d00023a3e0f524e5234524700812430c1213b0
:1042e0005e8019782312252712430c1213347402ae
:1042f00012225d8007aa27ab281218260269b7eea2
:104300002415f582e43ff5830592e0f98521828545
:104310002283125df8aa27ab282274f61222df74da
:10432000fe122278122513eafeebff89211264d7d0
:10433000121a0c12498d242a1254a1e0602205920f
:10434000e024fd600c24fc7014740765217011805a
:104350000c740a65216006740165217003752100e3
:10436000e4439201f00592f0900363e0f522ac2162
:10437000eefaeffbe0f9121b9e900363e06522600a
:1043800005a9221213f40241b374f61222dfe9ffe9
:104390008c218d22900363e0fe7821122527740c76
:1043a0001222b1e0fdeffc900363e0f9121b5074a0
:1043b0000212225d900363e06e6005eef91213f4c1
:1043c0000241c174f21222df74fe12227812251308
:1043d0008a258b26124464121a0c900363e0ff8531
:1043e0008482858583a38582238583247821122571
:1043f00027eefd7c048523828524831245d4121b7d
:1044000050740212225d900363e06f6005eff912b1
:1044100013f4e5842417f8e43585f988828983e06c
:104420002ef0a3e03400f074166e70178882898332
:10443000c3e09416a3e094004009aa25ab26121409
:10444000c680197900852382852483125e021214a6
:10445000cce40592f0aa25ab261218268532828577
:104460003383801c8c218d22e9fe125aa47b079095
:104470000363e0fa7901228532828533835392fe09
:1044800012251b740212225d7f060223b774f412f8
:1044900022df74fe1222781225138a238b24124401
:1044a00064121a0c0592e0f8740768700feef9ac0c
:1044b00021ad22aa23ab241214d8803f740a68705d
:1044c00010124504eefcaa21ab22e0f9121b568023
:1044d000171245047821122527eefd7c001246faba
:1044e000121b50740212225d900363e06f6005efaf
:1044f000f91213f4aa23ab241218268532828533cd
:104500008302628de4f00592900363e0ff2274f071
:104510001222df74fe12227812251374fe12224733
:104520008a278b288a828b83a3a3a3a3a3a3a3a3f5
:10453000a38582258583261264d7121a0c852782cb
:10454000852883a3a3e024faf52312490a8525844c
:104550008526850592a3853282853383059212488c
:10456000e47e00804e900363e0ffe5842402f521a1
:10457000e43585f522782112252774fe29fd7c0378
:104580008584828585831245d4121b5074021222c1
:104590005d900363e06f6005eff91213f4852582e7
:1045a000852683e0f5212efee5842521f584e4357a
:1045b00085f585852582852683e0f9eec395234020
:1045c000a48921e523c395211248d5124919121453
:1045d000c60269b21278b6900363e0f92212225d36
:1045e0008532828533835392fe12251b7402122278
:1045f0005d7f080223b774f01222df74fe12227866
:1046000012251374fe1222478a238b24ea2409f808
:10461000e435241264cb121a0c852382852483a3eb
:10462000a3e024faf522125aa0858427858528e57f
:1046300027242af582e43528f5837401f012695f96
:10464000640170047e0280027e107521008010e0fb
:104650006f6005eff91213f474022e2521f521e5a0
:1046600021c3952250535392fe900363e0ffa8218b
:104670008532828533831263f13400f585eef525aa
:10468000782512252be5842403fce43585fd1246ac
:10469000fa121b68740112225de990036370b0e0a6
:1046a0006f6005eff91213f4852782852883e4f003
:1046b000aa23ab24121826803e852221e52124fe60
:1046c000f8e434fff98e21e8c39521f8e99400f964
:1046d0008532828533835392fe12633c2401f8a312
:1046e000e03400f98527828528830592a3125fd0e4
:1046f000aa23ab241214c60269b212470505929090
:104700000363e0f9220592a3e0faa3e0fb2274f030
:104710001222df74fe12227812251374fe12224731
:104720008a278b28ea2409f8e435281264cb121a68
:104730000c852782852883a3a3e024fbf52112544e
:104740004705929003d312591f858225858326e55c
:1047500025242af582e43526f58374010592f07f3d
:1047600000800de06e6005eef91213f474042fff63
:10477000efc39521505beff8853284853385125f56
:10478000b98582848583850592900363e0fe752256
:1047900002782212252be5252417f523e43526f58a
:1047a0002478231225271248f3121b627403122265
:1047b0005de990036370ace06e6005eef91213f4ee
:1047c000852582852683e4f0aa27ab281218268047
:1047d0002ca8218532828533831263363400f9e8b0
:1047e00024fef582e934fff5831249308525828560
:1047f0002683a3125fd0aa27ab281214c60269b27f
:1048000074f01222df74fe12227812251374fe1245
:1048100022478a278b288a828b83a3a3a3a3a3a3df
:10482000a3a3a38582258583268a828b83a3a3e005
:1048300024faf5211264d7121a0c12490a85328221
:104840008533831248e47f008012e06e6005eef944
:104850001213f4852582852683e02fff8525828526
:104860002683e0f8efc395215056e5252ffae4356d
:1048700026fb8a828b83a38582848583859003634c
:10488000e0fe74fc28f522782212252bea2405f597
:1048900023e43bf52478231225271248f3121b62e8
:1048a000740312225de9900363709fe06e6005ee71
:1048b000f91213f4126f4daa27ab28121826801292
:1048c0008823e521c395231248d5a3a312491912c1
:1048d00014c60269b2f895e0f9e52528f582e526c7
:1048e00039f5832212780f242af582e438f583748f
:1048f00001f022858482858583a3a312592bfaa314
:10490000e0fb0592900363e0f922125ccb853282d2
:10491000853383e8f0a3e9f022a31249308532827f
:10492000853383126f43e8f0a3e9f0aa27ab28226e
:10493000e02401f8a3e03400f92274f61222df74b7
:10494000fe1222781225131213f4e970047a86807d
:104950001f12498d2416f584500205850592e0a2a8
:10496000e040047a818009121820ea4b70067a82ae
:104970007b01800d0592e0c2e0f01213707a007b9b
:10498000008532828533835392fe0241b9125aa4c4
:10499000e5842274f21222df74fe122278122513ab
:1049a000eafeebff8c258d261213f4e970047a865b
:1049b0008012124cf160047a818009121820ea4baf
:1049c00070067a827b01803074101222b1e0f8c345
:1049d000941450048822800375221485252385268b
:1049e000247823122527a922eefceffd121352741e
:1049f0000212225d7a007b0002447774f01222dffb
:104a000074fe1222781225138a278b28ecff1213ca
:104a1000f4e970047a868025124cf160047a818072
:104a20001cefa2e04005c3940450047a80800e126b
:104a300018208a258b26ea452670067a827b01801b
:104a400034efc394165004effe80027e16740a12ef
:104a50004b7f12253a7b0705921264d9121a1874fb
:104a60000412225deef9ac27ad28aa25ab2612135d
:104a7000467a007b000245e074f01222df74fe12d9
:104a800022781225138a258b26ecfeedff74141272
:104a900022b1e0f521c3941350191213f4e9700404
:104aa0007a868021124cf160047a818018e52545d0
:104ab0002670047a80800e1218208a278b28ea45f7
:104ac0002870067a827b01804d74080592f0a3e578
:104ad00025f0a3e526f09007ef12253a7b07059213
:104ae0001264d9121a18740412225d74121222bbb5
:104af000059212253e8e238f2405927823122527b6
:104b0000a921ac25ad26aa27ab2812133a740412aa
:104b1000225d7a007b000245e074f41222df74fe0d
:104b20001222781225138a221213f4e970047a866d
:104b3000801a124cf160047a8180111218208a23a5
:104b40008b24ae23af24ee4f70067a827b01802c3b
:104b50007409124b7f12253a7b0705921264d91211
:104b60001a18740412225de522600479018002792a
:104b700000eefaeffb1213407a007b00026284051c
:104b800092f0a3e4f0a3f09007ef2274f01222df7a
:104b900074fe122278122513eafeebff8c278d2873
:104ba0001213f4e970047a86801f124cf160047ac3
:104bb000818016ee4f70047a80800e1218208a25ac
:104bc0008b26ea452670067a827b01805474121285
:104bd00022b1e0f8c3941450048821800375211495
:104be00074060592f0a3eef0a3eff09007ef122504
:104bf0003a7b0705921264d9121a18740412225dc6
:104c00008527238528247823122527a921eefcef68
:104c1000fdaa25ab2612134c740212225d7a007b8a
:104c2000000245e074f41222df74fe12227812258d
:104c300013eafeebff1213f4e970047a86801a126d
:104c40004cf160047a818011ee4f70047a80800903
:104c5000121820ea4b70067a827b01802a740712b0
:104c60004ceceef0a3eff0858482858583a3a3a3ab
:104c7000eef0a3eff0e58424171254a1e4f0a3f0c2
:104c80001214c67a007b0002628474f41222df746c
:104c9000fe122278122513eafeebff1213f4e970dc
:104ca000047a86801a124cf160047a818011ee4fea
:104cb00070047a808009121820ea4b70067a827b91
:104cc0000180267405124ceca3a3a882a983eef000
:104cd000a3eff0888289831257690592a3e8f0a3b5
:104ce000e9f01214c67a007b00026284124e55a3ca
:104cf00022125aa40592e02274f21222df74fe12ec
:104d000022781225138a218b22ecfeedff1213f478
:104d1000e970047a868012124cf160047a8180096d
:104d2000121820ea4b70067a827b01801d740412ef
:104d30004cece521f0a3e522f00592a3a3a3eef04d
:104d4000a3eff01214c67a007b0002447774f012cd
:104d500022df74fe1222781225138a278b288c25d5
:104d60008d261213f4e970047a86802e124cf160bd
:104d7000047a81802574141222b10592e0ff740236
:104d80006f600974106f60047a80800e1218208a98
:104d9000238b24ea452470067a827b0180347403d5
:104da0000592f08f21752200059278211225277433
:104db000141222b1124e7e121d4e740212225d1286
:104dc0004e61858482858583124e6f1214c67a00e7
:104dd0007b000245e074f01222df74fe122278128a
:104de00025138a278b288c258d261213f4e970044d
:104df0007a86802e124cf160047a81802574141218
:104e000022b10592e0ff74026f600974106f6004b4
:104e10007a80800e1218208a238b24ea452470069b
:104e20007a827b01802c8f21752200782112252720
:104e300074141222b1124e7e121d4e740212225da3
:104e4000124e617401124e55124e6f1214c67a0042
:104e50007b000245e00592f085848285858305927a
:104e600022e5842415f582e43585f583eff02212de
:104e70004f33e525f0a3e526f0aa23ab2422125deb
:104e8000f8e5842405fae43585fb2274f01222df6c
:104e900074fe1222781225138a278b288c218d22ea
:104ea0001213f4e970047a868029124cf160047ab6
:104eb00081802074161222b10592e0ffc394114044
:104ec000047a80800e1218208a258b26ea452670e7
:104ed000067a827b01805974121222b1125769e559
:104ee000842417f582e43585125fce74020592f0b2
:104ef000e58424151254a1ef0592f08f2375240048
:104f0000782312252774161222b1124e7e121d4ede
:104f1000740212225d858482858583124f33e521d8
:104f2000f0a3e522f0aa25ab261214c67a007b0076
:104f30000245e0a3e527f0a3e528f00592a3a3a38b
:104f40002274f11222df74fe12227812251374fcef
:104f500012224774021222b112692de5c7f527907b
:104f60000368e0f5c774021222b112781885328402
:104f7000853385e5820592f0a3e583f0853282854d
:104f800033830592126965fa74021222b10592e028
:104f90002a1250d7059290f79de0f525ff741dc3a6
:104fa0009af5268e228e2180080522efc313ff0575
:104fb0002190f79ce0fce521c39c5043eec395266d
:104fc000503d1250e870e8efa2e050dfa3a3a3a386
:104fd000a3e0640270d375230275240078231225a0
:104fe00027125dede5842ef8e43585f9e82402fa10
:104ff000e439fb121d4e740212225d0e0e80aceedf
:105000006013858482858583a3ef60047402800227
:1050100074031250c0e52270030250b885328285b5
:1050200033835392fe126965f8741dc398fa95e0b4
:10503000fbc3ea9410eb9400a2d265d0334079749c
:10504000021222b10592e0281250d7af258e21809e
:1050500006efc313ff0521e521c39c5041e52660ff
:105060003d5392fe1250e870ecefa2e050e3a3a390
:10507000a3a3a3e0641070d97523108e24782312a3
:105080002527125dede5842402fae43585fb121d27
:105090004e740212225d7e1074ff2522600e8584fc
:1050a000828585835392fea3740680098584828558
:1050b0008583a374071250c08527c77404027058f3
:1050c000f074012ef80592f008853282853383054d
:1050d0009212696928f022f584a3e03400f5850571
:1050e00092a3a3a3a37e002290f796127862e521f3
:1050f00075f006a4faabf0e82afae93bfb8a828b4a
:1051000083e02274f01222df74fe1222781225133b
:1051100074f9122247853282853383ecf0a3edf0d7
:105120008a278b28e9fe752200126f4d8a828b83b5
:105130000592a3a3a3a385822385832474026e60b2
:105140000caa23ab24121a48e960027e02741912d9
:1051500022b11263d274100592f074026e600302e1
:1051600051e78523828524830592125769e87003ed
:1051700074286970567f0074191222b11263d274b8
:105180000a0592f0e5c7c0e074041222b1d0e00530
:1051900092f0900368e0f5c7126f4d059290f79c6e
:1051a000e0f526f582ac8285278285288312704f30
:1051b000500302531f852782852883a3a3125e0212
:1051c000c3ec9ae49b50258c2580247401687003fd
:1051d00074286970047f01809e74036870037428ca
:1051e0006970047f028090790002532ceaf525e86b
:1051f00014f521801274021222b1127815e521f003
:10520000a3e4f015210521e521c3952540030253b0
:105210001012576674051222b1125fd0852182a840
:10522000827900e875f006a4faabf074051222bb8f
:105230000592e02af582a3e03bf583ac82ad8305bd
:1052400092e06f70c0852282aa8285328485338580
:105250000592e02a12591374021222bbe5820592cc
:10526000f0a3e583126ee5e02404f52712695ff5eb
:10527000236009e52765236003025310852723ea8d
:10528000126ed34003025310e527f0eaf522e8241a
:10529000010850010974021222b11263d0e805928c
:1052a000f0a3e9126ee5125b9b1225278c828d8399
:1052b000125df174041222b1126f0d121d4e7402b0
:1052c00012225d8029e52175f006a4f8a9f0740585
:1052d0001222b15392fe125fd6f870030251f57498
:1052e000016870030251f5e86f70030251f5052162
:1052f000e521c3952640cee526652160030251f5e0
:1053000074021222b112781574fff0a3f002520554
:10531000e522600b74191222b15392fe126f53747e
:10532000041222b15392fee0f5c7a9227407024588
:10533000dd74f71222df74fe122278122513124454
:105340006a121a0c0592e0f8740668600a7408681c
:105350006005740968701ce41254987c00124705bb
:105360000592e0f9121b9e900363e06e6005eef972
:105370001213f402654674f21222df74fe122278d0
:105380001225138a258b26ecffedfeec24010ce49c
:105390003400fd1213228a848b8574101222b112fc
:1053a0005df4ec4d701deff91215b6e9fec39415ce
:1053b00040027e147d00eefceff9aa84ab85121545
:1053c000ce801aeec3941540027e148e2175220001
:1053d0007821122527121d4e740212225deef9aac1
:1053e00025ab2612132802445c8532828533830262
:1053f000654f74f71222df74fe1222781225138a89
:10540000848b8512543460237b081264d9121a0ce1
:10541000125434fae4f0900363e0fef9121b5c903e
:105420000363e06e6005eef91213f4aa84ab8512f3
:10543000182680b51254479003d3e028f8a3e0392a
:10544000f9e8127175e02212544b2212544f229047
:105450000363e075f037a4f8a9f02274f71222df95
:1054600074fe122278122513124cf1640b6026e5ab
:105470008424191254a174010592f0125aa0740bdd
:105480000592125498f9121b98900363e06e600520
:10549000eef91213f4026546f00592900363e0fe04
:1054a00022f582e43585f5832274f01222df74fe42
:1054b00012227812251374fd12224774011222b1b0
:1054c000ecf0a3edf089258a228b277a817b01e518
:1054d0002275f006a4f8a9f090f796126cf5f58500
:1054e0000592a3a3a3e0f582a3e0f58385828485da
:1054f0008385a3e0853284853385f00592e0f52825
:1055000075210074ff65256007852521800205212e
:10551000900364e0f8e521c398400302563b8521df
:1055200082a882e875f06fa4fcadf0900365125775
:1055300077e584246e1254a1e0a2e050d1e89003f4
:1055400063f0900361e584f0a3e585f08532828500
:105550003383e0131313541ffee05407f526e528a8
:10556000a2e4503de8125640f8ed39f912629aa8cb
:1055700026b800028004c313d8fca2e050231218fe
:1055800020ea4b606174011222bb059212253eade8
:1055900027ac22791b121556740212225d7a007b09
:1055a00000e528a2e54003025632900363e012565c
:1055b00040fced39fdec2422f582e43df583e0acbe
:1055c00026bc00028004c313dcfca2e05064125429
:1055d0003760047a8180111218208a238b24ae232d
:1055e000af24ee4f70067a827b01804f05929007c0
:1055f000ef12253a7b0805921264d9121a18740426
:1056000012225d74012522c0e01262a5127175d0cc
:10561000e0f074011222bb059212253ead27ac22a8
:10562000791deefaeffb121556740212225d7a0014
:105630007b0074ff6525700302550e74030269b484
:1056400075f037a4f8a9f09003d3e02efca3e03462
:1056500000fdec282274f01222df74fe1222781270
:10566000251389218c278d2875220074121222b1ee
:10567000e0fea3e0ff8e828f83e0f525e5c7f524e9
:1056800012593af52690f79ce0f8e526c3984009b0
:105690007522018e828f838023e526125e067009b3
:1056a0008524c77a887b018049a9261215b6e98e20
:1056b000828f83f0c395215007752207e4f0802282
:1056c000a821e0c398f0f8c39525500488238003ef
:1056d000852523e523f0ad21fca926aa27ab2812b6
:1056e00015ce8524c7e5226005fa7b0480047a0084
:1056f0007b000245e074f61222df74fe122278125b
:105700002513eaf8ecfaedfb752100e5c7fe9003de
:1057100068e0f5c7e814fd740c1222b112576990c5
:10572000f79ce0fcedc39c400b75210188828983c6
:10573000e4f0801eed12576d0592e0fca2e75004e4
:10574000741080027402888289830592f0ecf91249
:105750001a548ec7e521a2e05005fa7b0480047a32
:10576000007b000241b390f7961278622275f00632
:10577000a4fcadf090f796e02cf584a3e03df58510
:105780002274f61222dfe9ffeaf8ebf9e5c7fe9092
:105790000368e0f5c7740a1222b1e0fbc394154018
:1057a000067a807b01801690f79ce0c398e49950bc
:1057b000067a017b0480061aeff91215688ec7027b
:1057c00041c174f01222df74fe1222781225137484
:1057d000fe122247853282853383ecf0a3edf089f7
:1057e000257e00125934f52290f79ce0c395225093
:1057f00003025904e52275f006a4f8a9f005929079
:10580000f79612591f8582278583280592a3a3e066
:10581000fc24fa600a14600724fb60030259027436
:10582000141222b1e0f521740c6c70030258e88563
:1058300027848528850592a3a3a3e0f582a3e0f53c
:1058400083852584aa84858284858385a3a3a3a3d5
:10585000e0f8852123ea2523f523e43400f524e844
:105860009523e49524c365d03350057e0d02590578
:105870000592a3a3858284858385852182a8827968
:105880000074066c882389247823701b12252774e2
:10589000021222b1125926faa3e03400fb121d4e67
:1058a000740212225d803112252774021222b11275
:1058b0005926125913aa82ab83121d4e740212226a
:1058c0005de5212525c0e0852782852883a3a3a344
:1058d000126974d0e00592f085278285288353925f
:1058e000fea3a3e0640c700b853282853383125dc6
:1058f000f480047c007d00ab21aa2279ff12156898
:1059000080050e0e0e7f048526c7eefaeffb7402ab
:105910000245ddf582a3e03400f5830592a322124f
:105920005fc339f5832212592b2a22e0fca3e0fd44
:105930000592e0227f00e5c7f526900368e0f5c7f1
:10594000ea142274f41222df74fe12227812251354
:105950008c848d85e9ffe5c7f52112593afe90f751
:105960009ce0c39e500479018034740e1222b1e091
:10597000f52260047a0280027a80eef91215b0e90d
:10598000701ce4f523f5247823122527ad22effcc3
:10599000aa84ab85eef91215c8740212225d852126
:1059a000c70244fb74f31222df74fe122278122520
:1059b000138a218b22125aa08a828b83a3a3a3a3ca
:1059c000a3a3a3a3a3e0700f125ba412161cea4bbf
:1059d000607812182680f1e5c7fe900368e0f5c7ed
:1059e000e584242bf523e43585f52485238285245d
:1059f000831264c5605288828983a3a3a3a3a3a34f
:105a0000a3a3a3aa82ab83e0ff8a848b850592a31c
:105a1000a312253e7d01888289830592a3a3e024f9
:105a2000f7fcea2404fa50010b74ff2ff91215c891
:105a3000740212225de9f525aa23ab2412161c126a
:105a40001826e525702080a38ec7852182852283b4
:105a5000a3a31277ea7419f07900aa21ab221213da
:105a600028802a121826125ba412161cea4b70f327
:105a7000e525f523782312252b8f23ac237d007990
:105a800018aa21ab2212137c740112225d85328286
:105a900085338312251b740212225d7f050223b712
:105aa000125aa42212544b9003d3125aae22e02869
:105ab000f584a3e039f5852274f41222df74fe1216
:105ac00022781225138a848b85858482858583a319
:105ad000a3a3a3a3a3a3a3a3ae82af83e5c7f5218a
:105ae000900368e0f5c78e828f83e014f990f79ced
:105af000e0c39950217401f521782112252b8e8263
:105b00008f83125df47916aa84ab8512137c74011d
:105b100012225d0244fb7a021215b0e970d9121804
:105b2000208a238b24ae23af24ee4f8521c7700c2f
:105b30007a017b0090032e7408022159ac84ad8554
:105b4000125ba4121622858482858583a3a3858295
:105b500021858322125b9b122527e5842404fce423
:105b60003585fdee2404fae43ffb121d4e7402124b
:105b7000225d852182852283e08e828f83a3a3f01c
:105b80008e828f83a3a3a3a3a3a3a3a37417f079e7
:105b900000eefaeffb121328025b13e0f5237524e5
:105ba000007823221262a9242bfae439fb2274f133
:105bb0001222df74fe12227812251374fb12224780
:105bc00074031222b112692d8927ecfeed125cc616
:105bd00074011222b1125fd0e5c7f521900368e08d
:105be000f5c78e828f83a3a3e0f8ee1269003ff51c
:105bf00083a3a3a3a3858225858326741bc398f55d
:105c0000228025e9c522c39522f5228e828f83a3a7
:105c1000a3e029f0e52529f525e43526f5267401cc
:105c20001222b1125cc104f074011222b1125cc1e3
:105c3000fac395275071e522606da832a9338823f5
:105c40008924782312252785252385262478231265
:105c50002527a9227c007d00ea2afae433fb740799
:105c60001222b1125fdffaa3e0fb12159e74041238
:105c7000225d853282853383e06088853284853376
:105c800085059212254274041222b10592126965ab
:105c9000fca3e0fd790eeefaeffb12137c74011207
:105ca000225d8521c7800c8521c77900eefaeffbc4
:105cb000121328740512225d8532828533830270a7
:105cc0006412783fe022ff125ccb22125ccf2212da
:105cd000544f9003d3e028f8a3e039f92274f0126e
:105ce00022df74fe1222781225138c218d22e9fe08
:105cf000125934f52574141222b1e0f527a3e0f50a
:105d00002890f79ce0c39525500b85278285288332
:105d10007401025dc47a01a9251215b0e9852782b4
:105d2000852883f06003025de5852582aa827b00d9
:105d3000ea125e0670770592125aa0a884a985120d
:105d4000690f705e74121222b1125df4e82434f50a
:105d500082e439f583ecf0a3edf0e82436f582e433
:105d600039f583eef0900363e0ffeef5237823121c
:105d7000252bac21ad22ea24010a50010b900363cc
:105d8000e0f9121b6e740112225d900363e06f60f4
:105d900005eff91213f47a017b009003a074080256
:105da000215912691a8527828528838017a925120f
:105db00015b6e9ffc39521e49522500b852782850e
:105dc00028837407f0801ee521cfc39fffeec39f99
:105dd0005002eeffad21effca92574121222b11280
:105de0005e021215ce8526c7eff90269b78a828b4b
:105df00083a3a3a3125df822e0fca3e0fd228e8220
:105e00008f831278b62275f006a4f8a9f090f79661
:105e1000126341a3e0640c2274f11222df74fe12bb
:105e2000227812251374f812224712692774061279
:105e300022b1ecf0a3edf089277f00e5c7f526122b
:105e40006ef2f522126f175003025faf126f2e50e1
:105e5000048c218003eaf521e814fe853282853323
:105e60008312782774041222bbe5820592f0a3e521
:105e700083f08013888489850592e0f8a3e0f9e82f
:105e80000592f0a3e9f00eeec395214003025faf47
:105e90005392fe12576674021222b1125fd0ee7551
:105ea000f006a4f8a9f074021222b1125fd6f5250b
:105eb000a2e7500b126cda122234126cfa80031231
:105ec0006ce8f585eaf523782312252bac84ad85a3
:105ed000790274051222b1125e02121a4e74011276
:105ee000225de960a17a01eef91215b0e97097ac74
:105ef00027853282853383e02406faa3e03400fb51
:105f0000eef91215aae97003025e86eff874061224
:105f100022bb125fb9a882a983efc3941240030287
:105f20005faf74042fff8e23e5232401fae43400cd
:105f3000fbea059212692e8017ee75f006a4faab03
:105f4000f074021222b15392fe125fdf6525601ccd
:105f50000eeec3952240e2e5226e7010888289839e
:105f60005392fea3a374fff0a3025e851e74041275
:105f700022b15392fe126965faa3e0fb88828983fd
:105f80000592a3a3ea700374286b601774016a700a
:105f90000374286b600d74036a700374286b6003cc
:105fa000025e74ee2401f8e43400f9e8025e8285b2
:105fb00026c7eff974080270580592125fc33400c7
:105fc000f58322e028f582a3e022f582e43af58306
:105fd000e8f0a3e9f022125fda22126346e022120f
:105fe0005fe60592e022e02af584a3e03bf58522f6
:105ff00074f41222df74fe122278122513e9ffecea
:10600000feef1263d7fc8e82a8827900603914609b
:10601000361460331460301460621470030260ba86
:1060200014700302611b147003026169147003028f
:1060300061b714700302622514700302626a14705f
:106040000302611b026284ec6e6003026284882199
:1060500089227821122527eafcebfde5842403fa46
:10606000e43585fb121d48740212225d8b22ea453d
:10607000227004790180027900026284858482851d
:106080008583a3a3a3a3a3e06e6003026284882197
